{
  "contractName": "ReferenceConsumer",
  "abi": [
    {
      "inputs": [
        {
          "internalType": "address",
          "name": "_aggregator",
          "type": "address"
        }
      ],
      "payable": false,
      "stateMutability": "nonpayable",
      "type": "constructor"
    },
    {
      "constant": true,
      "inputs": [],
      "name": "getLatestPrice",
      "outputs": [
        {
          "internalType": "int256",
          "name": "",
          "type": "int256"
        }
      ],
      "payable": false,
      "stateMutability": "view",
      "type": "function"
    },
    {
      "constant": true,
      "inputs": [],
      "name": "getLatestUpdateHeight",
      "outputs": [
        {
          "internalType": "uint256",
          "name": "",
          "type": "uint256"
        }
      ],
      "payable": false,
      "stateMutability": "view",
      "type": "function"
    }
  ],
  "bytecode": "0x608060405234801561001057600080fd5b506040516102e73803806102e78339818101604052602081101561003357600080fd5b8101908080519060200190929190505050806000806101000a81548173ffffffffffffffffffffffffffffffffffffffff021916908373ffffffffffffffffffffffffffffffffffffffff16021790555050610253806100946000396000f3fe608060405234801561001057600080fd5b5060043610610053576000357c0100000000000000000000000000000000000000000000000000000000900480638e15f473146100585780639993d66914610076575b600080fd5b610060610094565b6040518082815260200191505060405180910390f35b61007e610159565b6040518082815260200191505060405180910390f35b60008060009054906101000a900473ffffffffffffffffffffffffffffffffffffffff1673ffffffffffffffffffffffffffffffffffffffff16637e1b4cb06040518163ffffffff167c010000000000000000000000000000000000000000000000000000000002815260040160206040518083038186803b15801561011957600080fd5b505afa15801561012d573d6000803e3d6000fd5b505050506040513d602081101561014357600080fd5b8101908080519060200190929190505050905090565b60008060009054906101000a900473ffffffffffffffffffffffffffffffffffffffff1673ffffffffffffffffffffffffffffffffffffffff1663f9f3e0356040518163ffffffff167c010000000000000000000000000000000000000000000000000000000002815260040160206040518083038186803b1580156101de57600080fd5b505afa1580156101f2573d6000803e3d6000fd5b505050506040513d602081101561020857600080fd5b810190808051906020019092919050505090509056fea265627a7a7231582098e4e5ce7100f0545dd53d39d23e776e177735a5b1dd394aac1fbf886b02162a64736f6c634300050c0032",
  "source": "pragma solidity 0.5.12;\r\n\r\ninterface AggregatorInterface {\r\n  function currentAnswer() external view returns (int256);\r\n  function updatedHeight() external view returns (uint256);\r\n}\r\n\r\ncontract ReferenceConsumer {\r\n  AggregatorInterface internal referenceAddress;\r\n\r\n  constructor(address _aggregator) public {\r\n    referenceAddress = AggregatorInterface(_aggregator);\r\n  }\r\n\r\n  function getLatestPrice() public view returns (int256) {\r\n    return referenceAddress.currentAnswer();\r\n  }\r\n\r\n  function getLatestUpdateHeight() public view returns (uint256) {\r\n    return referenceAddress.updatedHeight();\r\n  }\r\n}",
  "sourcePath": "C:/Users/alexa/OneDrive/Documents/Master/Blockchain/Projects/Emerald_Project/contracts/ECOPriceOracle.sol",
  "compiler": {
    "name": "solc",
    "version": "0.5.12+commit.7709ece9.Emscripten.clang"
  },
  "schemaVersion": "3.0.17",
  "updatedAt": "2019-11-10T19:12:28.676Z",
  "devdoc": {
    "methods": {}
  },
  "userdoc": {
    "methods": {}
  }
}