{
  "contractName": "TrsrTokenCrowdsale",
  "abi": [
    {
      "inputs": [
        {
          "internalType": "contract TrsrToken",
          "name": "_trsrContract",
          "type": "address"
        },
        {
          "internalType": "uint256",
          "name": "_trsrPrice",
          "type": "uint256"
        }
      ],
      "payable": false,
      "stateMutability": "nonpayable",
      "type": "constructor"
    },
    {
      "anonymous": false,
      "inputs": [
        {
          "indexed": false,
          "internalType": "address",
          "name": "_purchaser",
          "type": "address"
        },
        {
          "indexed": false,
          "internalType": "uint256",
          "name": "_amount",
          "type": "uint256"
        }
      ],
      "name": "TokensPurchased",
      "type": "event"
    },
    {
      "constant": true,
      "inputs": [],
      "name": "trsrContract",
      "outputs": [
        {
          "internalType": "contract TrsrToken",
          "name": "",
          "type": "address"
        }
      ],
      "payable": false,
      "stateMutability": "view",
      "type": "function"
    },
    {
      "constant": true,
      "inputs": [],
      "name": "trsrPrice",
      "outputs": [
        {
          "internalType": "uint256",
          "name": "",
          "type": "uint256"
        }
      ],
      "payable": false,
      "stateMutability": "view",
      "type": "function"
    },
    {
      "constant": true,
      "inputs": [],
      "name": "trsrSold",
      "outputs": [
        {
          "internalType": "uint256",
          "name": "",
          "type": "uint256"
        }
      ],
      "payable": false,
      "stateMutability": "view",
      "type": "function"
    },
    {
      "constant": false,
      "inputs": [
        {
          "internalType": "uint256",
          "name": "_amountTokens",
          "type": "uint256"
        }
      ],
      "name": "purchaseTrsrToken",
      "outputs": [],
      "payable": true,
      "stateMutability": "payable",
      "type": "function"
    },
    {
      "constant": false,
      "inputs": [],
      "name": "finalizeSale",
      "outputs": [],
      "payable": false,
      "stateMutability": "nonpayable",
      "type": "function"
    }
  ],
  "bytecode": "0x608060405234801561001057600080fd5b50604051610b47380380610b478339818101604052604081101561003357600080fd5b810190808051906020019092919080519060200190929190505050336000806101000a81548173ffffffffffffffffffffffffffffffffffffffff021916908373ffffffffffffffffffffffffffffffffffffffff16021790555081600360006101000a81548173ffffffffffffffffffffffffffffffffffffffff021916908373ffffffffffffffffffffffffffffffffffffffff160217905550806001819055505050610a60806100e76000396000f3fe608060405260043610610067576000357c0100000000000000000000000000000000000000000000000000000000900480631bf165821461006c57806358a687ec1461009a57806364cf5e18146100b1578063ba6d6b6d146100dc578063df98856c14610133575b600080fd5b6100986004803603602081101561008257600080fd5b810190808035906020019092919050505061015e565b005b3480156100a657600080fd5b506100af6104eb565b005b3480156100bd57600080fd5b506100c66108b6565b6040518082815260200191505060405180910390f35b3480156100e857600080fd5b506100f16108bc565b604051808273ffffffffffffffffffffffffffffffffffffffff1673ffffffffffffffffffffffffffffffffffffffff16815260200191505060405180910390f35b34801561013f57600080fd5b506101486108e2565b6040518082815260200191505060405180910390f35b610173816001546108e890919063ffffffff16565b34146101ca576040517f08c379a00000000000000000000000000000000000000000000000000000000081526004018080602001828103825260328152602001806109fa6032913960400191505060405180910390fd5b80600360009054906101000a900473ffffffffffffffffffffffffffffffffffffffff1673ffffffffffffffffffffffffffffffffffffffff166370a08231306040518263ffffffff167c0100000000000000000000000000000000000000000000000000000000028152600401808273ffffffffffffffffffffffffffffffffffffffff1673ffffffffffffffffffffffffffffffffffffffff16815260200191505060206040518083038186803b15801561028657600080fd5b505afa15801561029a573d6000803e3d6000fd5b505050506040513d60208110156102b057600080fd5b81019080805190602001909291905050501015610318576040517f08c379a000000000000000000000000000000000000000000000000000000000815260040180806020018281038252603181526020018061099f6031913960400191505060405180910390fd5b600360009054906101000a900473ffffffffffffffffffffffffffffffffffffffff1673ffffffffffffffffffffffffffffffffffffffff1663a9059cbb33836040518363ffffffff167c0100000000000000000000000000000000000000000000000000000000028152600401808373ffffffffffffffffffffffffffffffffffffffff1673ffffffffffffffffffffffffffffffffffffffff16815260200182815260200192505050602060405180830381600087803b1580156103dd57600080fd5b505af11580156103f1573d6000803e3d6000fd5b505050506040513d602081101561040757600080fd5b810190808051906020019092919050505061046d576040517f08c379a000000000000000000000000000000000000000000000000000000000815260040180806020018281038252603081526020018061096f6030913960400191505060405180910390fd5b806002600082825401925050819055507f8f28852646c20cc973d3a8218f7eefed58c25c909f78f0265af4818c3d4dc2713382604051808373ffffffffffffffffffffffffffffffffffffffff1673ffffffffffffffffffffffffffffffffffffffff1681526020018281526020019250505060405180910390a150565b6000809054906101000a900473ffffffffffffffffffffffffffffffffffffffff1673ffffffffffffffffffffffffffffffffffffffff163373ffffffffffffffffffffffffffffffffffffffff16146105ad576040517f08c379a000000000000000000000000000000000000000000000000000000000815260040180806020018281038252601a8152602001807f46756e6374696f6e2063616c6c6572206e6f742061646d696e2e00000000000081525060200191505060405180910390fd5b600360009054906101000a900473ffffffffffffffffffffffffffffffffffffffff1673ffffffffffffffffffffffffffffffffffffffff1663a9059cbb6000809054906101000a900473ffffffffffffffffffffffffffffffffffffffff16600360009054906101000a900473ffffffffffffffffffffffffffffffffffffffff1673ffffffffffffffffffffffffffffffffffffffff166370a08231306040518263ffffffff167c0100000000000000000000000000000000000000000000000000000000028152600401808273ffffffffffffffffffffffffffffffffffffffff1673ffffffffffffffffffffffffffffffffffffffff16815260200191505060206040518083038186803b1580156106c857600080fd5b505afa1580156106dc573d6000803e3d6000fd5b505050506040513d60208110156106f257600080fd5b81019080805190602001909291905050506040518363ffffffff167c0100000000000000000000000000000000000000000000000000000000028152600401808373ffffffffffffffffffffffffffffffffffffffff1673ffffffffffffffffffffffffffffffffffffffff16815260200182815260200192505050602060405180830381600087803b15801561078857600080fd5b505af115801561079c573d6000803e3d6000fd5b505050506040513d60208110156107b257600080fd5b8101908080519060200190929190505050610835576040517f08c379a00000000000000000000000000000000000000000000000000000000081526004018080602001828103825260208152602001807f4e65656420746f2072657475726e2062616c616e636520746f2061646d696e2e81525060200191505060405180910390fd5b6000809054906101000a900473ffffffffffffffffffffffffffffffffffffffff1673ffffffffffffffffffffffffffffffffffffffff166108fc3073ffffffffffffffffffffffffffffffffffffffff16319081150290604051600060405180830381858888f193505050501580156108b3573d6000803e3d6000fd5b50565b60015481565b600360009054906101000a900473ffffffffffffffffffffffffffffffffffffffff1681565b60025481565b6000808314156108fb5760009050610968565b600082840290508284828161090c57fe5b0414610963576040517f08c379a000000000000000000000000000000000000000000000000000000000815260040180806020018281038252602a8152602001806109d0602a913960400191505060405180910390fd5b809150505b9291505056fe546f6b656e7320617265206e6f742067657474696e67207472616e73666572726564207375636365737366756c6c792e546f6b656e20707572636861736520616d742067726561746572207468616e20636f6e74726163742062616c616e63652e52657665727365206f7065726174696f6e2070726f647563657320696e636f72726563742076616c756556616c7565206973206e6f7420657175616c20746f2074686520746f6b656e20616d74202a20746f6b656e2070726963652ea265627a7a723158209b6114e998568286771d3461a3ec1030f71e1fd4dcc2fe27c348afd834eca0ee64736f6c634300050c0032",
  "source": "pragma solidity >=0.5.12 <0.6.0;\r\n\r\n\r\nimport './TrsrToken.sol';\r\n\r\n\r\ncontract TrsrTokenCrowdsale {\r\n    // Using safe math operations to calculate conversion ether => tokens\r\n    using SafeMath for uint256;\r\n\r\n    // Name variables\r\n    address payable administrator;\r\n    uint256 public trsrPrice;\r\n    uint256 public trsrSold;\r\n    TrsrToken public trsrContract;\r\n\r\n    // Function to initalize the sale\r\n    constructor(TrsrToken _trsrContract, uint256 _trsrPrice) public {\r\n        // Set admin as the contract creator\r\n        administrator = msg.sender;\r\n\r\n        // Set variables using function params\r\n        trsrContract = _trsrContract;\r\n        trsrPrice = _trsrPrice;\r\n    }\r\n    // Event to call when a sale happens\r\n    event TokensPurchased(address _purchaser, uint256 _amount);\r\n\r\n    // Function to purchase the tokens\r\n    function purchaseTrsrToken(uint256 _amountTokens) public payable {\r\n        // Need the payable value to equal the token price * number of tokens\r\n        require(msg.value == trsrPrice.mul(_amountTokens), 'Value is not equal to the token amt * token price.');\r\n\r\n        // Need the balance held in the contract to be greater than the purchased amount\r\n        require(trsrContract.balanceOf(address(this)) >= _amountTokens, 'Token purchase amt greater than contract balance.');\r\n\r\n        // Need to transfer the tokens\r\n        require(trsrContract.transfer(msg.sender, _amountTokens), 'Tokens are not getting transferred successfully.');\r\n\r\n        // Track the amount of tokens sold\r\n        trsrSold += _amountTokens;\r\n\r\n        // Call the TokensPurchased Event\r\n        emit TokensPurchased(msg.sender, _amountTokens);\r\n    }\r\n    // Function to finalize the sale\r\n    function finalizeSale() public {\r\n        // Need the caller of this function to be admin\r\n        require(msg.sender == administrator, 'Function caller not admin.');\r\n\r\n        // Need to return the remaining tokens to the administrators wallet\r\n        require(trsrContract.transfer(administrator, trsrContract.balanceOf(address(this))), 'Need to return balance to admin.');\r\n\r\n        // Transfer balance into admin acc\r\n        administrator.transfer(address(this).balance);\r\n    }\r\n}",
  "sourcePath": "C:/Users/alexa/OneDrive/Documents/Master/Blockchain/Projects/Treasure_Project/contracts/TrsrTokenCrowdsale.sol",
  "compiler": {
    "name": "solc",
    "version": "0.5.12+commit.7709ece9.Emscripten.clang"
  },
  "schemaVersion": "3.0.16",
  "updatedAt": "2019-11-02T06:14:58.427Z",
  "devdoc": {
    "methods": {}
  },
  "userdoc": {
    "methods": {}
  }
}